:100000002500560A0F0A060A290A450AE2010108D4
:10001000E00865087208110800080008A308320CFF
:1000200034001402F400000F43061D0A060C3000D1
:10003000F002180A00001D0A110A280C30001402F0
:1000400090000306260A000C3100280A010C31003A
:10005000670A37024306320A240C3000F0022E0AE7
:100060000000440AFE0C06003200120412020600D0
:1000700006040B0C3000F0023B0AFF0C06003200B5
:10008000170C3000F002420A000814024306550A19
:10009000020C31007000F0024B0AF1024A0A970C80
:1000A0003000F002510AF402480ABF0A6400120448
:1000B000120206000605FF0C32000F0C3000070C80
:1000C00061000F0C0200040010020200020A31025B
:1000D0004306BB0A130C3000F0026C0A6F0A73006F
:1000E000070C3000130290000307BB0A760A1302C4
:1000F00006093400140235001502010E36003700DF
:100100002909810A030435031502010E3600370060
:100110002909890A030435031502010E3600370048
:100120002909910A030435031502010E3600370030
:100130002909990A030435031502010E3600370018
:100140002909A10A030435031502010E3600370000
:100150002909A90A030435031502010E36003700E8
:100160002909B10A030435031502010E36003700D0
:100170002909B302700A0400640C3400050A660AF7
:0201800003007A
:021FFE00EB0FE7
:00000001FF
;PIC10F220
