:100000002500660A0F0A060A280A550AE2010108B5
:10001000E00865087208110800080008A308320CFF
:1000200034001402F400000F43061D0A060C3000D1
:10003000F002180A00001D0A110A270C30001402F1
:1000400090000306250A000C260A010C3100770AED
:100050007600070C3000160290000307540A1502C0
:10006000010E370017023800380243063D0A240CFF
:100070003000F002390A00004F0AFE0C0600320080
:1000800012041202060006040B0C3000F002460AAD
:10009000FF0C06003200170C3000F0024D0A4F0A28
:1000A00003043503B602290A8C0A14024306650AC2
:1000B000020C31007000F0025B0AF1025A0A970C40
:1000C0003000F002610AF402580A920A6400120435
:1000D000120206000605FF0C32000F0C3000070C60
:1000E00061000F0C0200040010020200020A31023B
:1000F00043068E0A130C3000F0027C0A7F0A73005C
:10010000070C30001302900003078E0A860A1302C0
:10011000060934003500040AB302800A0400640CA6
:080120003400050A760A030011
:021FFE00EB0FE7
:00000001FF
;PIC10F220
